:020000040000FA
:060000000A128A110C280F
:10000800FE00030EF0000A08F1000A168A11162FE6
:100018000A128A110F288313C230FD001630FE0021
:10002800CF30FF00A03084000A168A1156260A1223
:100038008A110A128A11FE270A128A11EC000A1282
:100048008A11FF270A128A11ED000A128A11FC2769
:100058000A128A11F9000A128A11FD270A128A1156
:10006800FA005A3084006C300A168A112E260A12B9
:100078008A11FB0183010A128A15C52C8312031306
:100088002D08B7008030B7052D08B2003207BD0033
:10009800AC1F4F28502851283D143D0803195528F6
:1000A800562865283D0A031D5A285B286328003016
:1000B800AD000030AC000030AB000030AA00AC1737
:1000C8006D280030AD000030AC000030AB000030CF
:1000D800AA0031088039B7063108B2003207BC00DF
:1000E800B01F7728782879283C143C0803197D2804
:1000F8007E288D283C0A031D822883288B280030FF
:10010800B1000030B0000030AF000030AE00B017D2
:1001180095280030B1000030B0000030AF0000304A
:10012800AE003C08031999289A289F283D08031D0A
:100138009E289F28A8280030AD000030AC00003071
:10014800AB000030AA00832B2A08F20030080A12FC
:100158008A11D3270A128A11730883120313C30062
:100168007208C2004208B200B301B401B5013508F3
:10017800BB003408BA003308B9003208B800430895
:10018800B200B301B401B5013508C1003408C0009C
:100198003308BF003208BE002B08F2002F080A12ED
:1001A8008A11D3270A128A11730883120313C30012
:1001B8007208C2004208B200B301B401B5013208A6
:1001C800B807330803110318013E0319EC28B907CF
:1001D800340803110318013E0319F328BA07350838
:1001E80003110318013E0319FA28BB074308B2009C
:1001F800B301B401B5013208BE073308031103186F
:10020800013E03190829BF07340803110318013EEA
:1002180003190F29C007350803110318013E0319F4
:100228001629C1072C08F2002E080A128A11D327B2
:100238000A128A11730883120313C3007208C200DA
:100248004208B200B301B401B5013208B807330857
:1002580003110318013E03193229B90734080311A1
:100268000318013E03193929BA0735080311031881
:10027800013E03194029BB074308B200B301B4018A
:10028800B5013208BE07330803110318013E0319EC
:100298004E29BF07340803110318013E03195529D5
:1002A800C007350803110318013E03195C29C1076B
:1002B8000830B2000310B80DB90DBA0DBB0DB20B62
:1002C8005E292B08F2002E080A128A11D3270A1277
:1002D8008A11730883120313C3007208C20042080C
:1002E800B2004308B300B401B5013208B8073308B7
:1002F80003110318013E03198229B90734080311B1
:100308000318013E03198929BA0735080311031890
:10031800013E03199029BB072A08F2002F080A1288
:100328008A11D3270A128A11730883120313C30090
:100338007208C2004208B2004308B300B401B50114
:100348003208B807330803110318013E0319AD2911
:10035800B907340803110318013E0319B429BA0771
:10036800350803110318013E0319BB29BB070830E0
:10037800B2000310B80DB90DBA0DBB0DB20BBD29F3
:100388002A08F2002E080A128A11D3270A128A11A3
:10039800730883120313C3007208C2004208B20034
:1003A8004308B300B401B5013208B8073308031194
:1003B8000318013E0319E129B9073408031103188A
:1003C800013E0319E829BA07350803110318013E4D
:1003D8000319EF29BB072B08F20030080A128A110B
:1003E800D3270A128A11730883120313C3007208F1
:1003F800C2004208B2004308B300B401B501320894
:10040800BE07330803110318013E03190C2ABF075E
:10041800340803110318013E0319132AC0073508CD
:1004280003110318013E03191A2AC1072C08F20008
:100438002F080A128A11D3270A128A117308831205
:100448000313C3007208C2004208B2004308B30095
:10045800B401B5013208BE07330803110318013E81
:100468000319372ABF07340803110318013E03197B
:100478003E2AC007350803110318013E0319452A0F
:10048800C1072C08F20030080A128A11D3270A1271
:100498008A11730883120313C3007208C20042084A
:1004A800B2004308B300B401B50108300310B20D1F
:1004B800B30DB40DB50DFF3E031D5A2A3208BE0711
:1004C800330803110318013E03196B2ABF073408C8
:1004D80003110318013E0319722AC00735080311D6
:1004E8000318013E0319792AC1073808B2003908F0
:1004F800B3003A08B4003B08B50018300310B50C37
:10050800B40CB30CB20CFF3E031D822A3208BE079E
:10051800330803110318013E0319932ABF0734084F
:1005280003110318013E03199A2AC007350803115D
:100538000318013E0319A12AC1070830B2000310AD
:10054800B80DB90DBA0DBB0DB20BA32A3D083C0777
:10055800B200B301B30D3208823EC200330803185B
:10056800013EFF3EC300D52A0130B2000310BE0D84
:10057800BF0DC00DC10DB20BBA2ABB1FC42AC52AB4
:10058800C62A3E140130B2000310B80DB90DBA0DD9
:10059800BB0DB20BC82AFF30C2070318C30AFF30CD
:1005A800C307C01FD82AD92AB82ABC01BB1FDD2A15
:1005B800DE2AFA2AFF303805B200FF303905B300C9
:1005C800FF303A05B4007F303B05B50035083404E8
:1005D800330432040319F12AF22AF52A0130BC0047
:1005E800FA2A3E1CF82AF92AFA2AF22A3C080319A0
:1005F800FE2AFF2A302B0130BE07003003180130D5
:10060800BF07003003180130C0070030031801305D
:10061800C107411C102B112B302B3E08B2003F089C
:10062800B3004008B4004108B5000130B600350DEC
:10063800B50CB40CB30CB20CB60B1B2B3508C100AF
:100648003408C0003308BF003208BE000130C207BA
:100658000318C30A0030C3074308803AFF008030FC
:100668007F02031D392BFF304202031C3C2B3D2B1C
:10067800482B7F3083120313C1008030C000003044
:10068800BF000030BE00792B831203134308803A61
:10069800FF0080307F02031D532B013042020318F4
:1006A800562B572B632B003083120313C1000030E5
:1006B800C0000030BF000030BE00B701792B8312A4
:1006C80003134208BD00FF30BE05FF30BF057F3071
:1006D800C0050030C1053D1C722B732B742BC0174D
:1006E8003D08B2000310320CC1003708C1044108AC
:1006F800AD004008AC003F08AB003E08AA00080067
:1007080083120313D20055306C06031D8C2B8D2BDE
:10071800962B0A168A1141260A128A11FF30831273
:100728000313EC000A128A15A9230A128A111F3032
:10073800831203135206031DA22BA32BA72B1211FE
:1007480007116630ED006A08CC00CD014C08F200B4
:100758004D08F3003C30F4000030F5000A168A1109
:10076800F1260A128A11831203136B087207E60036
:100778000030031801307307E7008E30A00088307E
:10078800A1008030A2000A128A157E210A128A115D
:1007980008308312031369020318D32BD42B2B2C94
:1007A80064085E02CC006508031C650A5F02CD0080
:1007B8004D086702031DE22B4C086602031CE52B5B
:1007C800E62BF22BAA30A0008830A1008A30A200C4
:1007D8000A128A157E210A128A11AB2C6409CC00F0
:1007E8006509CD00CC0A0319CD0A60084C02CE0079
:1007F8006108031C610A4D02CF005E084E07D00055
:100808005F0803185F0A4F07D10051086702031DEC
:100818000F2C50086602031C122C132C1F2C4A3074
:10082800A0008930A1008A30A2000A128A157E2110
:100838000A128A11AB2C6130A0008930A1008A30DD
:10084800A2000A128A157E210A128A11AB2C0830DE
:100858006906031D302C312C8E2C5E08F2005F08CF
:10086800F300F401F50100300A128A111D270A125B
:100878008A11750883120313B1007408B000730855
:10088800AF007208AE003E30AD00CC30AC00CC30CA
:10089800AB00CD30AA000A128A1142200A128A112E
:1008A800831203132D08C7002C08C6002B08C500A7
:1008B8002A08C4000A128A1533230A128A118312DD
:1008C80003135F08CD0044085E02CC00031CCD036F
:1008D8004D086702031D722C4C086602031C752C18
:1008E800762C822C4A30A0008930A1008A30A200E0
:1008F8000A128A157E210A128A11AB2C6130A000D7
:100908008930A1008A30A2000A128A157E210A12B3
:100918008A11AB2C09306906031D932C942CA02C4A
:100928006130A0008930A1008A30A2000A128A151D
:100938007E210A128A11AB2CAA30A0008830A100AF
:100948008A30A2000A128A157E210A128A113830CA
:1009580083120313A0008930A100C030A2000A123C
:100968008A157E210A128A11C630F8000A30F20070
:100978000030F300831203136A08CC00CD014C0841
:10098800F4004D08F5000A128A155F220A128A112E
:100998007208303E0A168A1165260A128A11C73073
:1009A800F8000A30F2000030F300831203136A08DB
:1009B800CC00CD014C08F4004D08F5000A128A1548
:1009C80008220A128A117208303E0A168A11652610
:1009D8000A128A11C830F8003A300A168A116526B8
:1009E8000A128A11C930F8000A30F2000030F30008
:1009F800831203136B08CC00CD014C08F4004D089A
:100A0800F5000A128A155F220A128A117208303E0E
:100A18000A168A1165260A128A11CA30F8000A30A5
:100A2800F2000030F300831203136B08CC00CD01F1
:100A38004C08F4004D08F5000A128A1508220A121B
:100A48008A117208303E0A168A1165260A128A111E
:100A5800FF3083120313A0008830A1009030A20059
:100A68000A128A157E210A128A11C53083120313CD
:100A7800A0008830A100D030A2000A128A157E2179
:100A88000A128A11831203136A08031D4C2D4D2D77
:100A98008A2D6B08031D512D522D8A2D0A168A1195
:100AA80041260A128A118312031307118714003092
:100AB800A0008830A1008030A2000A128A157E2189
:100AC8000A128A11403083120313A0008830A10053
:100AD800C030A2000A128A157E210A128A118312D6
:100AE800031387104D3083120313CE001930CD0045
:100AF8004F30CC00CC0B7E2DCD0B7E2DCE0B7E2D1A
:100B0800013083120313ED001130EC00080044306B
:100B1800831203136C06031D922D932D9C2D0A1628
:100B28008A1141260A128A11FF3083120313EC003E
:100B38004430A0008930A1008030A2000A128A1532
:100B48007E210A128A11831203136908CC004C070C
:100B5800A03E840083130008A000840A00088403D0
:100B6800A1008630A2000A128A157E210A128A1173
:100B78003E3083120313A0008930A100C030A200C8
:100B88000A128A157E210A128A11C630F8000A3024
:100B9800F2000030F300831203136A08CC00CD0181
:100BA8004C08F4004D08F5000A128A155F220A1253
:100BB8008A117208303E0A168A1165260A128A11AD
:100BC800C730F8000A30F2000030F3008312031334
:100BD8006A08CC00CD014C08F4004D08F5000A1253
:100BE8008A1508220A128A117208303E0A168A11DA
:100BF80065260A128A11C830F8003A300A168A1196
:100C080065260A128A11C930F8000A30F20000304D
:100C1800F300831203136B08CC00CD014C08F400D9
:100C28004D08F5000A128A155F220A128A11720805
:100C3800303E0A168A1165260A128A11CA30F8004F
:100C48000A30F2000030F300831203136B08CC0063
:100C5800CD014C08F4004D08F5000A128A15082247
:100C68000A128A117208303E0A168A1165260A127B
:100C78008A11831203136A08CC00CD014C08F200D4
:100C88004D08F3003C30F4000030F5000A168A11D4
:100C9800F1260A128A11831203136B087207DE0009
:100CA8000030031801307307DF005F08E7005E08B3
:100CB800E6006608F2006708F300F401F501003069
:100CC8000A128A111D270A128A1175088312031342
:100CD800B1007408B0007308AF007208AE003E306F
:100CE800AD00EB30AC008530AB001F30AA000A1213
:100CF8008A1142200A128A11831203132D08C70091
:100D08002C08C6002B08C5002A08C4000A128A1538
:100D180033230A128A11831203134508E500440895
:100D2800E4006608F2006708F300F401F5010030FA
:100D38000A128A111D270A128A11750883120313D1
:100D4800B1007408B0007308AF007208AE003D30FF
:100D5800AD00F530AC00C230AB008F30AA000A12EB
:100D68008A1142200A128A11831203132D08C70020
:100D78002C08C6002B08C5002A08C4000A128A15C8
:100D880033230A128A11831203134508E300440827
:100D9800E2006608F2006708F300F401F50100308C
:100DA8000A128A111D270A128A1175088312031361
:100DB800B1007408B0007308AF007208AE003E308E
:100DC800AD00D730AC000A30AB003D30AA000A12A3
:100DD8008A1142200A128A11831203132D08C700B0
:100DE8002C08C6002B08C5002A08C4000A128A1558
:100DF80033230A128A11831203134508E1004408B9
:100E0800E0001A3083120313CE005E30CD006D303F
:100E1800CC00CC0B0D2FCD0B0D2FCE0B0D2F142F7F
:100E280083120313121507155530EC000530ED0039
:100E3800080083120313A40024080319242F252F64
:100E4800392FF51F282F292F392F7209A60073096A
:100E5800A7007409A8007509A900A60A0319A70A1A
:100E68000319A80A0319A90A412F7508A9007408CB
:100E7800A8007308A7007208A60075087404730414
:100E88007204031D482F492F522F0030F5000030FF
:100E9800F4000030F3000030F200D22F9630A500A5
:100EA800602F0130A50701300310A90CA80CA70C6E
:100EB800A60CFF3E031D582FFE302905031D652F84
:100EC800662F552F802F0130A5070130A607003067
:100ED80003180130A707003003180130A8070030B5
:100EE80003180130A90701300310A90CA80CA70C9E
:100EF800A60CFF3E031D782FFF302905031D852F03
:100F0800862F672F922F0130A5020130A000031011
:100F1800A60DA70DA80DA90DA00B8B2FA81B952F0B
:100F2800962F9C2F0230250203189B2F9C2F872F6A
:100F380025189F2FA02FA82FFF30A605FF30A70543
:100F48007F30A805FF30A9050310A50C2508A000CF
:100F5800A101A201A30118300310A00DA10DA20D3B
:100F6800A30DFF3E031DB02F2008A6042108A704E7
:100F78002208A8042308A90424080319C42FC52F8C
:100F8800CA2FF51FC82FC92FCA2FA9172908F5007E
:100F98002808F4002708F3002608F2000800831246
:100FA8000313A400A001A1017208F400F50174085C
:100FB800A2007508A300241CE22FE32FE92F2208C2
:100FC800A0070318A10A2308A10701300310A20DE6
:100FD800A30DFF3E031DEA2F0310A40C2408031DD4
:100FE800F62FF72FDF2F2108F3002008F200080062
:100FF8000134013411340134703472346F3467347D
:10100800723461346D34203463346F346D34703429
:101018006C34653474346534643400345734613462
:101028007334683469346E3467342034503472341D
:101038006F346734723461346D340034773461341A
:101048007334683469346E34673420346D346134F1
:101058006334683469346E3465340034503472341F
:1010680065347334733420345334773469347434C6
:10107800633468343A340034523445344D344F3490
:1010880056344534203443344C344F345434483483
:101098005334003470347234653473347334203408
:1010A8006B34653479343534203474346F34003417
:1010B800573441345434453452345F344C34453415
:1010C800563445344C343A34003450344C34453476
:1010D800413453344534203443344C344F3453343E
:1010E8004534003470346F3477346534723469347D
:1010F8006E34673420346F346E34003452346934BB
:101108006E347334653420342B34203444347234D0
:10111800793400345F345F34703472346F34673438
:10112800723461346D343A34003441347134753476
:1011380061342034733474346F3472346534003459
:1011480053347434613469346E3420347734613400
:10115800733468340034453463346F3443346F3443
:10116800743474346F346E347334003442346534F8
:1011780064342034733468346534653474347334B7
:1011880000342034533436343A34503441345534EE
:101198005334453400345334573435343A345334A3
:1011A800543441345234543400344434653464344F
:1011B80069346334613474346534733400345734B7
:1011C80061347334683420346F346E346C34793459
:1011D800003464346F346F347234203469347334B7
:1011E800203400345334573436343A345334543476
:1011F8004F3450340034533435343A34533454343F
:101208004134523454340034443472347934203400
:101218006F346E346C347934003470346F3477340E
:101228006534723420346F346E3400344F345034A3
:1012380045344E34453444342034003457346F3404
:101248006F346C3465346E34733400344D34653423
:101258006434693475346D3400345734683469340F
:101268007434653473340034543449344D3445345B
:101278003A340034743469346D3465343A340034A3
:10128800703472346F3467343A34003472346934E9
:101298006E347334653400344434613469346C34E6
:1012A8007934003448346534613476347934003420
:1012B80048346934673468340034733470346934BA
:1012C8006E3400344134753474346F3400344C3423
:1012D8006F34773400344D346134783400342A3430
:1012E8000034FA308316031392008C14831203130C
:1012F80012110800F2018312031322080A168A1138
:10130800AF260A128A15A029F201F20A2108FF0065
:10131800200884000A168A1100200A128A150A1663
:101328008A11AF260A128A15013083120313A00707
:101338000318A10A0030A107831203132108FF0034
:10134800200884000A168A1100200A128A15003A19
:10135800031DAF29B02988290800C330F700CD3014
:10136800F600F60BB529F70BB529F20133300A164A
:101378008A11AF260A128A151B30F7009E30F60034
:10138800F60BC429F70BC4290000F20133300A1602
:101398008A11AF260A128A15A630F600F60BD22952
:1013A8000000F20133300A168A11AF260A128A1594
:1013B800DD29DE290000F2013C300A168A11AF2629
:1013C8000A128A15A630F600F60BE8290000F20189
:1013D80001300A168A11AF260A128A150430F7005E
:1013E8003D30F600F60BF629F70BF629FB29F2013A
:1013F8000C300A168A11AF260A128A15A630F60092
:10140800F60B042A00000800F701F51F0C2A0D2A24
:10141800142AF409F509F40A0319F50A0130F7004A
:10142800F31F172A182A1D2AF209F309F20A0319C9
:10143800F30A720873040319222A232A502A013056
:10144800F6002F2A01300310F20DF30DFF3E031DA5
:10145800272A0130F607F31F322A332A262A73086F
:101468007502031D392A72087402031C3C2A3D2A9E
:10147800432A7208F4027308031CF503F5020130CD
:101488000310F30CF20CFF3E031D442A0130F60250
:10149800031D4F2A502A332A77080319542A552A3C
:1014A8005A2AF409F509F40A0319F50A7508F3002C
:1014B8007408F200080083120313A101F31F652AC0
:1014C800662A6D2AF209F309F20A0319F30A0130B0
:1014D800A100F51F702A712A782AF409F509F40A7F
:1014E8000319F50A0130A106A201A30172087304C9
:1014F80003197F2A802AB52A0130A0008C2A0130DE
:101508000310F20DF30DFF3E031D842A0130A007DE
:10151800F31F8F2A902A832A01300310A20DA30DEE
:10152800FF3E031D912A73087502031D9D2A720848
:101538007402031CA02AA12AA82A7208F4027308BC
:10154800031CF503F502221401300310F30CF20C0E
:10155800FF3E031DA92A0130A002031DB42AB52AA3
:10156800902A21080319B92ABA2ABF2AA209A3096D
:10157800A20A0319A30A2308F3002208F2000800AC
:1015880083120313A8012808803EF800FF300A16CA
:101598008A1165260A128A15033083120313A700DD
:1015A8008A30A6005530A500A50BD82AA60BD82A44
:1015B800A70BD82A013083120313A807103028027A
:1015C800031CE72AE82AC72A7630A0008830A10041
:1015D800C330A2000A128A157E210A128A15223007
:1015E80083120313A0008830A1009130A2000A12D0
:1015F8008A157E210A128A1583120313A901290864
:10160800D03EF800FF300A168A1165260A128A159C
:10161800033083120313A7008A30A6005530A500B3
:10162800A50B142BA60B142BA70B142B013083121C
:101638000313A90710302902031C232B242B032B87
:10164800333083120313A700BB30A600DF30A50098
:10165800A50B2C2BA60B2C2BA70B2C2B080003104F
:1016680083120313460D470DF7007708031D3D2B22
:101678003E2B472B0030C7000030C6000030C500A5
:101688000030C400A82B4408C8004508C900460813
:10169800CA004708CB001F300310CB0CCA0CC90C7A
:1016A800C80CFF3E031D502B4808F600C617FF3034
:1016B800C405FF30C505FF30C6050030C7059630A4
:1016C800F702F71F682B692B812B7708803A973E22
:1016D80003186F2B702B712B3E2B01300310C70C96
:1016E800C60CC50CC40CFF3E031D722B0130F70756
:1016F800031D7F2B802B712B982B20307702031C26
:10170800862B872B932B3E2B0130C8000310C40D6A
:10171800C50DC60DC70DC80B8A2B0130F702770817
:10172800031D972B982B882B760803199C2B9D2B30
:10173800A82BC409C509C609C709C40A0319C50ADB
:101748000319C60A0319C70A0800831203130618E7
:10175800AE2BAF2B202C0711121187140A168A11F1
:1017680041260A128A15ED3083120313A00088302F
:10177800A1008030A2000A128A157E210A128A1559
:101788001A3083120313A0008930A100C030A200D0
:101798000A128A157E210A128A15693083120313E8
:1017A800A0008830A1009030A2000A128A157E217C
:1017B8000A128A1583120313061CE32BE42BDE2B73
:1017C8000715121587100A168A1141260A128A155A
:1017D8008E3083120313A0008830A1008030A2004D
:1017E8000A128A157E210A128A15383083120313C9
:1017F800A0008930A100C030A2000A128A157E21FB
:101808000A128A15FF3083120313A0008830A10042
:101818009030A2000A128A157E210A128A15C53054
:1018280083120313A0008830A100D030A2000A124E
:101838008A157E210A128A150800F80022308312C0
:1018480003136C06031D292C2A2C332C0A168A1123
:1018580041260A128A15FF3083120313EC00373031
:101868007806031D382C392C492C0A168A11412672
:101878000A128A15013083120313E8070530680637
:10188800031D472C482C492CE8015C30A000883007
:10189800A1008030A2000A128A157E210A128A1538
:1018A800733083120313A0008930A100C030A20056
:1018B8000A128A157E210A128A15831203136808F0
:1018C800A3002307B83E840083130008A000840AFD
:1018D80000088403A100C130A2000A128A157E21E3
:1018E8000A128A150530F2000030F3008312031340
:1018F8006808013EF400003003180130F5000A12B0
:101908008A1508220A128A15720883120313A30083
:101918002307B83E840083130008A000840A000847
:101928008403A1009130A2000A128A157E210A12AE
:101938008A150530F2000030F3008312031368089B
:10194800023EF400003003180130F5000A128A152F
:1019580008220A128A15720883120313A3002307A8
:10196800B83E840083130008A000840A000884039A
:10197800A100D130A2000A128A157E210A128A1506
:1019880008000A168A117A260A128A154E3083121E
:101998000313A0008830A1008130A2000A128A1522
:1019A8007E210A128A15113083120313A000893090
:1019B800A100C530A2000A128A157E210A128A15D2
:1019C800223083120313A0008830A1009130A200B6
:1019D8000A128A157E210A128A1501300A168A11FE
:1019E8005F270A128A1583120313D9002F3059066C
:1019F800031DFF2C002D012D0C2D823083120313A3
:101A0800D400DD30D300D30B072DD40B072DF12CD8
:101A18000A168A1141260A128A150A128A15C42240
:101A28000A128A1501300A168A115F270A128A15C6
:101A380083120313D900E830D5000330D6000130F3
:101A4800D5020030031CD603D602550A031D302DDB
:101A5800560A031D302D312D232D2C30D70001308F
:101A6800D8000130D7020030031CD803D802570A27
:101A7800031D422D580A031D422D432D352D993043
:101A88005906031D482D492D532D6D03031D4D2D5A
:101A98004E2D532D0230ED002230EC00932D99305D
:101AA8005906031D582D592D932D02306D06031D1F
:101AB8005E2D5F2D932D0330ED003330EC000A12BC
:101AC8008A15B4260A128A15932D59080A128A15FE
:101AD800AC250A128A15162D59080A128A152124CE
:101AE8000A128A15162D59080A168A11AF270A12E2
:101AF8008A15162D59080A128A118B250A128A1579
:101B0800162D59080A128A1184230A128A15162DCD
:101B180059080A168A1194260A128A15162D831254
:101B280003136D08013A0319692D033A0319702D3F
:101B3800013A0319772D073A03197E2D013A031943
:101B4800852D633A03198C2D162D0A128A110C283B
:101B5800F8001130831203136C06031DB42DB52D44
:101B6800BE2D0A168A1141260A128A15FF308312E1
:101B78000313EC0037307806031DC32DC42DD42D74
:101B88000A168A1141260A128A1501308312031394
:101B9800E9070C306906031DD22DD32DD42DE90198
:101BA8001230A0008830A1008130A2000A128A15E4
:101BB8007E210A128A15733083120313A00089301C
:101BC800A100C030A2000A128A157E210A128A15C5
:101BD8000A308312031369020318F32DF42D322EF1
:101BE8006908A3002307A03E840083130008A0000F
:101BF800840A00088403A100C130A2000A128A15D1
:101C08007E210A128A15831203136908A300230789
:101C1800A23E840083130008A000840A00088403FD
:101C2800A1009130A2000A128A157E210A128A1593
:101C3800831203136908A3002307A43E84008313B7
:101C48000008A000840A00088403A100D130A20083
:101C58000A128A157E210A128A15B32E0A306906DD
:101C6800031D372E382E742E6908A3002307A03EC3
:101C7800840083130008A000840A00088403A100DC
:101C8800C130A2000A128A157E210A128A1583120F
:101C980003136908A3002307A23E840083130008E6
:101CA800A000840A00088403A1009130A2000A124F
:101CB8008A157E210A128A158316031320088312B7
:101CC8000313A00083160313210883120313A10032
:101CD800D130A2000A128A157E210A128A15B32E63
:101CE8000B306906031D792E7A2EB32E6908A300DE
:101CF8002307A03E840083130008A000840A00087C
:101D08008403A100C130A2000A128A157E210A129A
:101D18008A1583160313200883120313A000831661
:101D28000313210883120313A1009130A2000A12A1
:101D38008A157E210A128A15831603132208831234
:101D48000313A00083160313230883120313A100AF
:101D5800D130A2000A128A157E210A128A150800BB
:101D6800D72FEA012130EB00FF2FEA012930EB00E1
:101D7800FF2FEA012D30EB00FF2F6808003A031906
:101D8800B92E013A0319B52E033A0319B92E013AAF
:101D98000319BD2E073A0319BD2EFF2FEA012B3078
:101DA800EB00FF2FEA013230EB00FF2FEA01393058
:101DB800EB00FF2F6808003A0319D62E013A0319E1
:101DC800D22E033A0319D62E013A0319DA2E073A0E
:101DD8000319DA2EFF2FEA011A30EB00FF2FEA0170
:101DE8001F30EB00FF2F6808003A0319EF2E013A65
:101DF8000319EF2E033A0319EF2E013A0319F32EB4
:101E0800073A0319F32EFF2F0130EA001030EB00D8
:101E1800FF2F6808003A0319082F013A0319082F01
:101E2800033A0319082F013A0319082F073A03192F
:101E3800082FFF2F0130EA002430EB00FF2F68083D
:101E4800003A03191E2F013A03191E2F033A0319EA
:101E58001E2F013A03191E2F073A03191E2FFF2FB1
:101E6800EA011F30EB00512FEA012430EB00512F1B
:101E78006808003A0319342F013A0319342F033A3A
:101E88000319342F013A0319382F073A0319382F49
:101E9800512FEA011D30EB00FF2F6808003A0319A3
:101EA8004D2F013A03194D2F033A03194D2F013ACB
:101EB80003194D2F073A03194D2FFF2FEA012E3032
:101EC800EB00FF2FEA013530EB00FF2FEA013C3031
:101ED800EB00FF2F6808003A0319662F013A03192F
:101EE800622F033A0319662F013A03196A2F073A3A
:101EF80003196A2FFF2FEA011230EB00FF2FEA01C6
:101F08001430EB00FF2F6808003A0319832F013AB9
:101F180003197F2F033A0319832F013A0319832FDB
:101F2800073A0319832FFF2FEA010630EB00FF2F32
:101F38006808003A0319982F013A0319982F033AB1
:101F48000319982F013A0319982F073A0319982F64
:101F5800FF2FEA011030EB00FF2FEA011530EB00EC
:101F6800FF2F6808003A0319B12F013A0319AD2F62
:101F7800033A0319B12F013A0319EF2E073A03194F
:101F8800EF2EFF2F6808003A0319982F013A03191A
:101F9800982F033A0319982F013A0319982F073AF3
:101FA8000319982FFF2F831203136908003A0319A6
:101FB800C12E013A0319DE2E033A0319F72E013A0E
:101FC80003190D2F073A0319232F013A03193C2F40
:101FD800033A0319512F013A03196E2F0F3A0319C7
:101FE800872F013A03199C2F033A0319B52F013A99
:101FF8000319C62FFF2F0800FF1B0A2883137F1819
:1020080083170008840A0319FF0A08007F087F392C
:0C2018008A000408840A0319FF0A8200F1
:102C50008316031306083F388600080064008001CD
:102C6000840A04060319003404062F2E8316031366
:102C70008801091189100A128A15B1210A168A11D0
:102C80000800F20101300A168A11AF260A168A11CD
:102C90000430F7003D30F600F60B4C2EF70B4C2EAF
:102CA000512E08007E088A007F0882000A168A11C9
:102CB00052260A168A118000840A04087D06031928
:102CC0000034FF0A0319FE0A562E83120313A400D0
:102CD000F20178080A168A11AF260A168A11F20143
:102CE000F20A8312031324080A168A11AF260A1661
:102CF0008A1108000A168A1136260A168A110A163F
:102D00008A1128260A168A110A128A1575210A16AE
:102D10008A118B170B178316031387100711831261
:102D20000313871007110800F5000330F4008A3000
:102D3000F3005530F200F20B9B2EF30B9B2EF40B9D
:102D40009B2EA22E2F307506031DA72EA82EAE2E69
:102D500083120313121507150530ED000800F50066
:102D60007218B32EB72E831203130915BA2E8312CD
:102D700003130911750888008914A630F300F30BBA
:102D8000BF2E00008312031389101B30F4009E3005
:102D9000F300F30BC92EF40BC92E000008005034C9
:102DA000893456348934D934883431348934A4345C
:102DB0008834AF34883422348934BA348834823445
:102DC000883408348934E334883499348834663458
:102DD00089346B3489342A3489345C3489346F34CF
:102DE0008934F601F701721CF62EF72EFD2E7408B9
:102DF000F6070318F70A7508F70701300310F40DFA
:102E0000F50DFF3E031DFE2E01300310F30CF20CF6
:102E1000FF3E031D052F72087304031D102F112F91
:102E2000F32E7708F3007608F200080083120313EC
:102E30008C1C1B2F1C2F582F0130DA070030031871
:102E40000130DB07003003180130DC0700300318C5
:102E50000130DD0720305A064E3003195B065C0452
:102E60005D04031D342F352F552F831203136B0878
:102E700003193B2F3C2F3F2F0130EB024D2F6B08E6
:102E8000031D432F442F4D2F6A080319482F492F44
:102E90004D2F0130EA023C30EB000030DD00003005
:102EA000DC000030DB000030DA00831203138C10EA
:102EB00071088A00700E8300FE0E7E0E09008312D8
:102EC00003130608F2003F30F2053F307206031983
:102ED0006A2F6B2F752F7A0803196F2F702F752F9C
:102EE000FA01F9017208FB00AD2F3F307206031D95
:102EF0007A2F7B2F8A2F7A08031D7F2F802F8A2F0E
:102F00000130FA000A3079020318872F882FAD2F7D
:102F10007B08AE2F7A08031D8E2F8F2F982F0B3032
:102F200079020318942F952F982F0130F907AD2FB0
:102F30007A08031D9C2F9D2FAD2F0B307906031DA2
:102F4000A22FA32FAD2F37307206031DA82FA92F54
:102F5000AD2F0130F9079930AE2F3F300800F8004F
:102F60003330831203136C06031DB72FB82FC12F04
:102F70000A168A1141260A168A11FF30831203139A
:102F8000EC003230A0008830A1008130A2000A128B
:102F90008A157E210A168A11CF3083120313A000EE
:102FA0008830A100C130A2000A128A157E210A16BB
:102FB0008A11F63083120313A0008830A1009130EB
:102FC000A2000A128A157E210A168A112F3078066D
:102FD000031DEB2FEC2FF32F043083120313ED00AE
:102FE0004430EC00FF2F1F307806031DF82FF92F17
:102FF000FF2F013083120313ED001130EC000800A5
:02400E00FB3F76
:00000001FF
